:020000001528C1
:0C000600831221088A00200882000800F4
:1000120003208A110A128000840AA00A0319A10A85
:08002200D003031D09280800AA
:10002A0083169F01073083129900831605108510E5
:10003A00831205143430DC00F130DD00DD0B232897
:10004A00DC0B23280000000005103430DC00F130FE
:10005A00DD00DD0B2E28DC0B2E28000000008514A5
:10006A000630DC003030DD00DD0B3928DC0B3928A6
:10007A00000085100630DC003030DD00DD0B43283F
:0A008A00DC0B432800001D28492864
:02400E00D231AD
:00000001FF
