:020000001628C0
:0E0006008312031321088A00200882000800DC
:1000140003208A110A128000840AA00A0319A10A83
:08002400F003031D0A28080087
:10002C000730831203139F000330831685000330BF
:10003C008312850005184128051585110230FB0037
:10004C000430FC00BA30FD00FD0B2A28FC0B2A28DA
:10005C00FB0B2A280000051185150230FB0004302B
:10006C00FC00BA30FD00FD0B3928FC0B3928FB0BCA
:10007C0039280000222885186228051585150230BC
:10008C00FB000430FC00BA30FD00FD0B4B28FC0BD0
:10009C004B28FB0B4B280000051185110230FB008F
:1000AC000430FC00BA30FD00FD0B5A28FC0B5A281A
:0C00BC00FB0B5A28000043282028632872
:02400E006A2125
:00000001FF
