:0200000039289D
:10000800FF00030E8301A4000A08A5008A010B1D46
:100018001F28A00A0319A10A063081002108013A05
:10002800031D1828F4302006031D1E2810308606EC
:10003800A001A1010B1125088A00240E8300FF0EE0
:040048007F0E09001E
:0E004C008312031323088A0022088200080092
:10005A0026208A110A128000840AA20A0319A30A16
:08006A00F003031D2D2808001E
:1000720083120313A001A1018130831681008B1723
:100082000B178B1606308312810083160612861216
:1000920083120612861286160330FB008A30FC0099
:1000A2005530FD00FD0B5328FC0B5328FB0B532846
:1000B2000000000086120330FB008A30FC0055303D
:1000C200FD00FD0B6228FC0B6228FB0B622800007E
:0600D20000004C286B2821
:02400E00782117
:00000001FF
