:020000003E2898
:0C00060007308312DD00DD0B0628080027
:0C001200831223088A00220882000800E4
:10001E0009208A110A128000840AA20A0319A30A6F
:08002E00D003031D0F28080098
:10003600C33083129F05F0309F05F03083169F046E
:1000460083129F172408D000D00D5010D00D5010E9
:1000560050089F041F1403209F149F1C342800007F
:1000660030281F101E08D100D00183161E08D004A8
:060076000030D104080077
:10007C0001308312A000A101013083169F000130D2
:10008C0083129F000730990001308316850083127C
:10009C008501A4011B205008A0005108A10080304C
:1000AC00D200803051065202031D5E285008003CDD
:1000BC0003186528831285100511051285128030EE
:1000CC00D000803021065002031D6E282008CC3C45
:1000DC0003187528831285140511051285128030BA
:1000EC00013AD000803021065002031D7F282008E1
:1000FC009A3C03188628831285140515051285125F
:10010C008030023AD000803021065002031D902826
:10011C002008653C031897288312851405150516CD
:10012C0085128030033AD000803021065002031D26
:10013C00A1282008313C0318A82883128514051522
:10014C00051685168230DC00DD30DD00DD0BAC28B9
:0C015C00DC0BAC28000000004F28B3288A
:02400E00D431AB
:00000001FF
