:020000001628C0
:0E0006008312031321088A00200882000800DC
:1000140003208A110A128000840AA00A0319A10A83
:08002400F003031D0A28080087
:10002C0083120313A2013F30A3000630A4005B30FF
:10003C00A5004F30A6006630A7006D30A8007D30BB
:10004C00A9000730AA007F30AB006730AC00073046
:10005C009F0083168601831286012208233E8400AA
:10006C0000088600A20A22080A3A031D3E28A201B3
:10007C000330FB008A30FC005530FD00FD0B44289A
:10008C00FC0B4428FB0B44280000000033284D28AF
:02400E006A2125
:00000001FF
