:020000005C2E74
:0E000600F201F101F001F801F30100300800F1
:100014007B15FB1F14280130F300F201F101F001FC
:08002400FA0DF20CFF30080098
:08002C00FA1FF2130030080076
:1000340083120313F801F9011030FC00710DF80D5F
:10004400F90D7408F8027508031C750FF9020318FA
:1000540032287408F80775080318750FF907031098
:0A006400F00DF10DFC0B2028080040
:10006E00FB14FB1F4128FF30F300F200F100F000FB
:08007E00FA0DF20CFF3008003E
:100086007C187928FC184A287C1998284328A1014D
:100096007208031D6A287108F2007008F1007808DA
:1000A600F000F801A1157208031D6A287108F20014
:1000B6007008F100F001A11121167208031D6A28CB
:1000C6007108F200F101A115720803198C282108A4
:1000D600F302031D031C90280310F21B7928F80D68
:1000E600F00DF10DF20DF30B702890287B1B701CA0
:1000F6009428F81F9428F00A0319F10A0319F20A42
:10010600031D9428F20CF10CF00CF30A031998283D
:1001160094280130FC0003209B280230FC000A20B2
:100126009B280430FC0016209B280830FC00372052
:0401360000000800BD
:10013A007B14FB1FA828F201FA1FFF30F200F1001E
:0A014A00F000FA0DF20CFF3008007F
:10015400A1017208031DBF287108F2007008F100A4
:10016400F001A1157208031DBF287108F200F10106
:10017400A111211672080319CD282108F302031DC9
:10018400031CD1280310F21BD528F00DF10DF20D3C
:10019400F30BC528D1280130FC000320D8280230F5
:0E01A400FC000A20D8280430FC0016200800B9
:1001B20083120313E601053066020318E728660876
:1001C2006507840020308000E60ADC28660865079F
:1001D20084008001E60366086507E7000A30F40040
:1001E200F5016308F0006408F1001A207808F000B5
:1001F2007908F1003030F007670884007008800049
:100202000A30F400F5016308F0006408F1001A20D6
:100212007008E3007108E40000307106031D132921
:1002220000307006031D16291829E603EC28080081
:10023200FB09FA09F909F809F80A0319F90A031975
:08024200FA0A0319FB0A080087
:10024A007408F8027508031C750FF9027608031C76
:10025A00760FFA027708031C770FFB02F30D0730BB
:10026A00FC00730DF80DF90DFA0DFB0D7408731CE3
:10027A004C29F8027508031C750FF9027608031C4D
:10028A00760FFA027708031C770FFB025929F80741
:10029A0075080318750FF90776080318760FFA0719
:1002AA0077080318770FFB07F30DFC0B3629720D3D
:1002BA00F80DF90DFA0DFB0D7408731C7229F8027A
:1002CA007508031C750FF9027608031C760FFA02EB
:1002DA007708031C770FFB027F29F80775080318B4
:1002EA00750FF90776080318760FFA0777080318C7
:1002FA00770FFB07F20D0730FC00720DF80DF90DB0
:10030A00FA0DFB0D7408721C9829F8027508031C73
:10031A00750FF9027608031C760FFA027708031C98
:10032A00770FFB02A529F80775080318750FF90757
:10033A0076080318760FFA0777080318770FFB0772
:10034A00F20DFC0B8229710DF80DF90DFA0DFB0D5A
:10035A007408721CBE29F8027508031C750FF9028D
:10036A007608031C760FFA027708031C770FFB0244
:10037A00CB29F80775080318750FF90776080318CB
:10038A00760FFA0777080318770FFB07F10D073086
:10039A00FC00710DF80DF90DFA0DFB0D7408711CB6
:1003AA00E429F8027508031C750FF9027608031C84
:1003BA00760FFA027708031C770FFB02F129F80778
:1003CA0075080318750FF90776080318760FFA07E8
:1003DA0077080318770FFB07F10DFC0BCE29700D78
:1003EA00F80DF90DFA0DFB0D7408711C0A2AF802B2
:1003FA007508031C750FF9027608031C760FFA02BA
:10040A007708031C770FFB02172AF80775080318E9
:10041A00750FF90776080318760FFA077708031895
:10042A00770FFB07F00D0730FC00700DF80DF90D82
:10043A00FA0DFB0D7408701C302AF8027508031CAB
:10044A00750FF9027608031C760FFA027708031C67
:10045A00770FFB023D2AF80775080318750FF9078D
:10046A0076080318760FFA0777080318770FFB0741
:10047A00F00DFC0B1A2A7018502A7408F807750830
:10048A000318750FF90776080318760FFA07770825
:08049A000318770FFB070800AF
:1004A200831603139818572A0000512A83126308EF
:0404B20099000800A5
:1004B60083120313FB01FC01F80173080319D32A05
:1004C6007208FA00F2179E30F302F31FC32AF309EB
:1004D600F30A08307302031C982AF300F80D70081B
:1004E600F8007108F0007208F100F201083073029A
:1004F600031C982AF300F80D7008F8007108F00044
:10050600F10108307302031C982AF300F80D7008F5
:10051600F800F00108307302031C982AF300F80D66
:10052600F8017308031D0310A22A73080319A22AEF
:100536000310F20CF10CF00CF80CF30B9B2A7B1B4E
:10054600781CB02A031CB02AF80A0319F00A03190A
:10055600F10A0319F20AF21BD02AFA1FD32AF2096A
:10056600F109F009F809F80A0319F00A0319F10A62
:100576000319F20AD32AF201F101F001F801D32A94
:100586007B14FB1FD62AF201FA1FD62AF200F100CD
:10059600F000F800FA0DF20CD62A0130FC00D82A39
:1005A6000030FC00D82AFF30FC00FC080319DC2AC6
:1005B6009D207208F3007108F2007008F1007808B7
:0405C600F000080039
:0E05CA001D3083120313FD00FD0BE92A08000B
:1005D8008312031372087606A100F801F901730863
:1005E8007702031C0F2B7708FD007308F7007D08BE
:1005F800F3007608FD007208F6007D08F200750821
:10060800FD007108F5007D08F1007408FD00700810
:10061800F4007D08F00077080319882B7208FA00A7
:10062800F217F61777087302F7000319422B083000
:100638007702031C382BF7007408F9007508F400DA
:100648007608F500F60108307702031C382BF7000E
:100658007408F9007508F400F50108307702031CE6
:10066800382B7A08F200882B77080319422B0310DD
:10067800F60CF50CF40CF90CF70B3B2BA11F4F2BC8
:10068800F909F409F509F609F90A0319F40A03192D
:10069800F50A0319F60A7908F80774080318740F9D
:1006A800F00775080318750FF10776080318760F19
:1006B800F207A11B682B031C782BF20CF10CF00C31
:1006C800F80CF30F782B842B03187C2BF809F0090E
:1006D800F109F209F80A0319F00A0319F10A0319D2
:1006E800F20A8030FA06802B0130FC0043208A2B66
:1006F8000230FC0043208A2B0430FC00AA208A2BFD
:100708000830FC0037208A2B0030FC00000008006D
:10071800831203137408003A031DA72B7508003AC7
:10072800031DA72B7608003A031DA72B7708003A6C
:10073800031DA72BFF30F000FF30F100FF30F2005F
:100748007F30F300080083120313FC01F71BFC0A37
:10075800FD01FB01FA01F901F80173087204710443
:10076800700403193B2C73087706A000A01BFD0931
:10077800F71FC92BF409F509F609F709F40A031953
:10078800F50A0319F60A0319F70AF31FD62BF0091D
:10079800F109F209F309F00A0319F10A0319F20A37
:1007A8000319F30A73087704A000A01BF72B25216F
:1007B800FC1B142CFD1F3B2CF009F109F209F3096D
:1007C800F00A0319F10A0319F20A0319F30AF809DE
:1007D800F909FA09FB09F80A0319F90A0319FA0AC7
:1007E8000319FB0A3B2CF71F0E2CF31B082C73086C
:1007F800FB007208FA007108F9007008F800F301AC
:10080800F201F101F001DE2BF301F201F101F00137
:10081800F00A0034F309F209F109F009FC17DB2B9F
:10082800F80A0319F90A0319FA0A0319FB0A7408E2
:100838007802031DDE2B75087902031DDE2B76086E
:100848007A02031DDE2B77087B02031DDE2BFB01DA
:10085800FA01F901F801F00A0319F10A0319F20A79
:100868000319F30AF31FDE2BA0012016FF34A001A1
:0A0878007C1C3F2C1921003E0800F3
:1008820083120313DF01E0015A08E1005B08E20072
:1008920080305B06F00080307002031D522C003065
:1008A2005A020318602C0130DF000030E0005A08C1
:1008B200003CE1005B08031C013EE201E202610828
:1008C200E3006208E4005C08E500D9200630DD00A0
:1008D2000030DE005E08003C031D712C5D08003C08
:1008E20003188C2C5D085C07F20001305D02F000F9
:1008F2000030031C013E5E02F10070085C078400B8
:100902000008F00072088400700880000130DD02E7
:10091200031CDE036B2C5C088400203080005F081F
:1009220060040319AA2CDD01DE015D085C07840066
:100932000008203A031DA12CDD0A0319DE0A962CB9
:100942000130DD02031CDE035D085C0784002D30EC
:040952008000080019
:1009560083120313FB017308031D77080319022D85
:1009660072087606FA007708F3077E30031CBF2C60
:10097600F3020318052DC22CF302031C082D72087E
:10098600F8007108FC007008FD00F817F617031050
:10099600F201F101F0011830A1007D1CDC2C740875
:1009A600F00775080318750FF10776080318760F18
:1009B600F207F20CF10CF00CF80CFC0CFD0C031019
:1009C600A10BD02CF21BEC2CF80DF00DF10DF20D55
:1009D600F3037B1B701CFE2CF81FFE2CF00A031978
:1009E600F10A0319F20A031DFE2CF20CF10CF00CAD
:1009F600F30A0319052DFA1FF21300300A2D0130F0
:100A060003200A2D023037200A2D04300A20000068
:020A16000800D6
:100A180083120313DC015A0884000008DB005B081A
:100A2800003A0319212D5B08E3005122DC0A5C0817
:0C0A38005A0784000008DB00132D0800A2
:100A4400831203137008F8007108F0007208F100B3
:100A54007308F200F301FB01FC019E30F300FA017C
:100A6400F21F402DF809F009F109F209F80A0319F7
:100A7400F00A0319F10A0319F20AFA170230FC000A
:040A84004320080003
:100A8800831203132230FC00F801F901FA01FB017B
:100A9800FC0303197A2D0310FB0CFA0CF90CF80C63
:100AA800F30CF20CF10CF00C031C4C2DFC03031995
:100AB8006C2D7408F80775080318750FF907760880
:100AC8000318760FFA0777080318770FFB07502DDE
:100AD8007408F80775080318750FF90776080318DE
:0E0AE800760FFA0777080318770FFB07080050
:0E0AF6008312031354088A005308820008007C
:100B0400831203135608F0005708F1005808F20046
:100B14005908F300F430F4000130F500F601F70150
:100B24004425FF30F4000330F500F601F7018C236F
:100B34007008DA007108DB004C30DC0041244C30D2
:100B4400DA000C252230DA000C250A30E3005122A9
:100B54000D30E30051220430FB000C30FC00333034
:100B6400FD00FD0BB32DFC0BB32DFB0BB32D0000CF
:040B74000000080075
:100B7800831203131A08F100981CC42D18121816B2
:060B88007108F0000800F6
:100B8E00831203139F01C0309F0483161F179F17F4
:100B9E0083125608F000F00D7010F00D7010F00D6D
:100BAE00701070089F041F14E5221F151F1DE12DE4
:100BBE000000DD2D1F101E08F100F00183161E0827
:080BCE00F0040030F1040800FE
:100BD600831203135608F0005708F1005808F20074
:100BE6005908F300F430F4000130F500F601F7017E
:100BF6004425FF30F4000330F500F601F7018C239D
:100C060022256630F4006630F5006630F6007F3047
:100C1600F700AB240030F4000030F5000030F60099
:100C26008430F700EC225B227008DA007108DB00E2
:100C36004C30DC0041244C30DA000C253A30DA0026
:100C46000C250A30E30051220D30E3005122043016
:100C5600FB000C30FC003330FD00FD0B302EFC0B8E
:0C0C6600302EFB0B302E000000000800B8
:0E0C72000030831203138C1A0130F0000800CA
:100C800083160313981690308312980083168717E3
:100C9000071383128C1E4F2E1A08F000492E0800ED
:100CA0007B258A110A128000840AD30A0319D40A08
:080CB000F003031D502E0800A3
:100CB80004270730831603139C00013083129F001A
:100CC8000E3083169F0067309900181540260330B0
:100CD800FB000830FC007730FD00FD0B712EFC0B8B
:100CE800712EFB0B712E4630DA000C250A30E3001A
:100CF80051220D30E30051220330831686008312FF
:100D080086013926700803198F2EBC257008D50076
:100D18007008E3005122061CA52E8618A52ED601C0
:100D2800C72570088312AB007108AC00AD01AE0195
:100D38002B08D6002C08D7002D08D8002E08D9007B
:100D480082250618BC2E861CBC2ED601C725700825
:100D58008312AB007108AC00AD01AE012B08D600C0
:100D68002C08D7002D08D8002E08D900EB25D32E43
:100D78002F30DA000C250A30E30051220D30E30051
:100D880051220430FB000C30FC003330FD00FD0B19
:100D9800CB2EFC0BCB2EFB0BCB2E00000000852EA0
:020DA800D42E47
:100E0800223084002A3083120313F000DA30D30032
:080E18000630D400502608004A
:100DB4002034433445344C34533449345534533457
:020DC4000034F9
:080DC600003400340034003455
:100DCE0041344734553441345234443441344E3432
:060DDE0044344F340034E0
:100DE4002034463441344834523445344E34483443
:080DF400453449345434003445
:0C0DFC0053345434413452345434003425
:02400E004A2F37
:00000001FF
