:020000001628C0
:0E0006008312031323088A00220882000800D8
:1000140003208A110A128000840AA20A0319A30A7F
:08002400F003031D0A28080087
:10002C00FF3083120313A000A10107309F00831639
:10003C008601FF308312860000302106031D28281C
:10004C0000302006031D2D28FF30A000A101200840
:10005C008600A00DA10D20100230FB000430FC0026
:10006C00BA30FD00FD0B3828FC0B3828FB0B382868
:06007C00000022284028CC
:02400E006A2125
:00000001FF
