:0200000058287E
:0E0006008312031333088A00320882000800B8
:10001400831603139818102800000A28831238083E
:040024009900080037
:100028008316031398169030831298008316871747
:10003800071383128C1E23281A08F0001D280800B5
:10004800831203131A08F100981C2C28181218168A
:060058007108F000080031
:10005E0003208A110A128000840AB20A0319B30A15
:08006E00F003031D2F28080018
:1000760083120313B701350884000008B60036085A
:10008600003A031950283608B8000A20B70A37087C
:0C009600350784000008B600422808006E
:0E00A2000030831203138C1A0130F0000800A6
:1000B000413083120313A0004C30A1004530A20050
:1000C0005230A3005430A4004130A5002130A600D6
:1000D0002130A7002130A8002130A9002130AA003A
:1000E000AB015330AC005430AD004130AE00523063
:1000F000AF005430B000B101073083169C0083126A
:100100009F01063083169F00673099001815142050
:100110000330FB000830FC007730FD00FD0B8E281B
:10012000FC0B8E28FB0B8E282C30B5003B200A30B0
:10013000B8000A200D30B8000A20803083168600EF
:1001400083128601512070080319AC2824207008FE
:10015000B4007008B8000A20B9280614D128061087
:10016000D1288614D1288610D1280615D128061149
:10017000D1283408723A0319AD283408743A0319A7
:10018000AF283408673A0319B1283408683A0319CC
:10019000B3283408793A0319B5283408753A031995
:1001A000B728861BDC282030B5003B200A30B80079
:0C01B0000A200D30B8000A20A228DD282B
:02400E004A2F37
:00000001FF
