:02000000642971
:0E0006008312031324088A00230882000800D6
:0E0014001D3083120313FD00FD0B0E280800A3
:1000220083120313FB01FA01F9018030F800F10C8D
:10003200F00C031C25287408F90775080318750FBE
:10004200FA070318FB0A0310F01F2D287408FA0799
:1000520075080318750FFB07FB0CFA0CF90CF80C6A
:10006200031C18287B08F3007A08F2007908F100D3
:060072007808F000080010
:10007800710DF80DF90D7408F8027508031C750F59
:10008800F902F00DF10D0F30FC00710DF80DF90DAE
:100098007408701C5528F8027508031C750FF902BE
:1000A8005A28F80775080318750FF907F00DF10DB0
:1000B800FC0B4928701866287408F8077508031897
:0800C800750FF90700000800A4
:1000D000831203137008F100F0010830FC0071086E
:1000E000F40C03187728FC0B7028F101003403107E
:1000F0007C28F40C0318F107F10CF00CFC0B7928A8
:020100000800F5
:10010200831603131208013EF000F1010318F10AED
:1001120083122508F400F50111200630F200700860
:10012200F4007108F500720803199C28F50CF40C10
:10013200F513FF3E95280430F1007408F0007108B1
:100142000319A728F00D7010FF3EA1288312031394
:1001520030307005F3007408F0007508F100F10CFE
:10016200F00CF113F10CF00CF113700895000F3044
:080172009705730897040800CB
:10017A00831603130711831212150C309704080013
:0C018A008312031395011712971208004E
:10019600831203137408003A031DDA287508003A1F
:1001A600031DDA28FF30F0007F30F10008008312CB
:1001B6000313FD01F901F8017108700403190034F5
:1001C60071087506FA00FA1BFD09FB01F51FF028F8
:1001D600F409F509F40A0319F50AF11FF728F009DD
:1001E600F109F00A0319F10A71087504FA00FA1BFD
:1001F6000C293C207B181F29FD1F0034F009F1094A
:10020600F00A0319F10AF809F909F80A0319F90AB3
:100216000034F51F1B29F11B17297108F900700816
:10022600F800F101F001FF28F101F001F00A0034B5
:10023600F109F009FB0AFC28F80A0319F90A7408FF
:100246007802031DFF2875087902031DFF28F901AE
:10025600F801F00A0319F10AF11FFF280000FF3424
:0202660008008E
:10026800831203139F01C0309F0483161F179F1723
:1002780083122508F000F00D7010F00D7010F00DCD
:10028800701070089F041F140A201F151F1D4E2987
:1002980000004A291F101E08F100F00183161E08ED
:0802A800F0040030F10408002D
:1002B00003208A110A128000840AA30A0319A40ADF
:0802C000F003031D582908009A
:1002C800463083120313A000073083169C000130C8
:1002D80083129F000E3083169F008312121492140B
:1002E800F93083169200C5202008F000FF30F40092
:1002F80068206430F4000030F500CB207008A500B9
:100308008120BD20A501342170088312A100710845
:10031800A2002008F000FF30F40068206430F400E8
:100328000030F500CB207008A500812000302202A3
:10033800031DA029023021020318AA29A00A2008B7
:100348005A3C0318A9295A30A000AC294630A0000D
:040358008629AD291C
:02400E004A2F37
:00000001FF
