:02000000CC280A
:10000600831603139C1C0928000003288312330857
:1000160083169B008312340883169A009C131C15C2
:100026000B08F0008B1355309D00AA309D009C14E0
:0E003600F01B1F288B1320288B171C110800AD
:1000440083120313330883169B009C131C141A0891
:04005400F0000800B0
:0E0058008312031331088A003008820008006A
:100066002C208A110A128000840AB00A0319B10AE8
:08007600F003031D332808000C
:10007E008312031385195D28AA0A0319AB0A82306D
:10008E00FC00DD30FD00FD0B4A28FC0B4A28000069
:10009E0000008030F00080302B067002031D5928BE
:0E00AE002A08093C03185D28AA01AB010800CE
:1000BC00831203132C08B30022207008FF3A031D8F
:1000CC0076288312B3012C08B40003200D30FC00F9
:1000DC00FB30FD00FD0B7028FC0B702800000000AD
:1000EC008312B301222070088312AD00AE010D30D3
:1000FC00FC00FB30FD00FD0B8128FC0B812800006F
:10010C0000002D08B2002D08B3002A08B40003200B
:10011C000D30FC00FB30FD00FD0B9228FC0B9228EF
:10012C00000000008312B20A3208803C03189F289A
:10013C00B201B3013208B40003200D30FC00FB30D7
:10014C00FD00FD0BA728FC0BA72800000000831264
:10015C0005140330FB008A30FC005530FD00FD0B0C
:10016C00B528FC0BB528FB0BB528000000000510CA
:02017C00080079
:10017E0083120313B301222070038312B3002220D3
:0A018E0070088312AA00AB010800FC
:100198003F3083120313A0000630A1005B30A20099
:1001A8004F30A3006630A4006D30A5007D30A60056
:1001B8000730A7007F30A8006730A900AA01AB016B
:1001C8000130AC0007309F008316051085108601AA
:1001D8000C30831285008601BF203F200519F528C1
:1001E8005E202A08203E84000008F0007008AF0056
:1001F80070088600C330FC00CD30FD00FD0B0229DD
:08020800FC0B0229F128072973
:02400E006A2125
:00000001FF
