:020000009F2837
:0E0006008312031321088A00200882000800DC
:10001400831203132908A4002A08A500A601A70136
:060024000130A8000800F5
:10002A00831203132230FC00F801F901FA01FB01E3
:10003A00FC0303194B280310FB0CFA0CF90CF80CFF
:10004A00F30CF20CF10CF00C031C1D28FC03031931
:10005A003D287408F80775080318750FF90776081C
:10006A000318760FFA0777080318770FFB0721287A
:10007A007408F80775080318750FF9077608031846
:0E008A00760FFA0777080318770FFB070800B8
:1000980003208A110A128000840AA00A0319A10AFF
:0800A800F003031D4C280800C1
:1000B000831203132808031D62280130A9000030B1
:1000C000AA000A202408F0002508F1002608F20002
:1000D0002708F3006D30F4004E30F500C630F6000E
:1000E0004130F70015203930F5003030F600F701C7
:1000F000F8017008F50771080318710FF607720808
:100100000318720FF70773080318730FF8077708BF
:10011000F0007808F1000030F81BFF30F300FF30EA
:10012000F0057F30F1050030F205F3057008A400FA
:0E0130007108A5007208A6007308A700080059
:10013E000730831203139F000330831685000330AC
:10014E008312850058207008A2007108A300701851
:10015E00B2280511B32805150519B7288515B82835
:10016E008511051DC8280518BD2805118230FC0013
:10017E00DD30FD00FD0BC128FC0BC1280000000086
:10018E00B828851DD8288518CD2885118230FC0009
:10019E00DD30FD00FD0BD128FC0BD1280000000046
:1001AE00C8280330FB008A30FC005530FD00FD0BE3
:1001BE00DE28FC0BDE28FB0BDE2800000000A92841
:0201CE00E72820
:02400E006A2125
:00000001FF
