:02000000802856
:10000600831603139C1C092800000328831230085A
:1000160083169B008312310883169A009C131C15C5
:100026000B08F0008B1355309D00AA309D009C14E0
:0E003600F01B1F288B1320288B171C110800AD
:0E004400831203132D088A002C088200080086
:10005200831203132F0883169B009C131C141A0887
:04006200F0000800A2
:1000660022208A110A128000840AAC0A0319AD0AFA
:08007600F003031D332808000C
:10007E0083120313B0012008B10003200D30FC00E1
:10008E00FB30FD00FD0B4928FC0B49280000000049
:10009E00831205140330FB008A30FC005530FD003E
:1000AE00FD0B5728FC0B5728FB0B572800000000B0
:0400BE000510080021
:1000C2008312031385197F28A00A0319A10A82301B
:1000D200FC00DD30FD00FD0B6C28FC0B6C280000E1
:1000E20000008030F000803021067002031D7B2862
:0E00F2002008093C03187F28A001A101080086
:1001000083120313A001A1013F30A2000630A30017
:100110005B30A4004F30A5006630A6006D30A7000C
:100120007D30A8000730A9007F30AA006730AB00FF
:1001300007309F0083160510851086010C3083124E
:1001400085008601AF01292070088312A000A1015B
:1001500061200519AC283F202008223E84000008B9
:10016000F0007008AE0070088600C330FC00CD308F
:0E017000FD00FD0BB928FC0BB928A828BE28FD
:02400E006A2125
:00000001FF
