:02000000DB28FB
:10000800FF00030E8301A4000A08A5008A010B1D46
:1000180078280B116C308100861C33282008013A9F
:10002800031D33280230A000861006158615061A0F
:1000380021280130A60092203228861A2728043069
:10004800A60092203228061B2D280730A6009220F1
:100058003228861B32280B30A60092207828061DED
:1000680056282008023A031D56280330A00086149B
:1000780006118615061A44280230A6009220552833
:10008800861A4A280530A60092205528061B5028B3
:100098000830A60092205528861B55280A30A6004D
:1000A80092207828861D78282008033A031D78288E
:1000B8000130A000861406158611061A6728033039
:1000C800A60092207828861A6D280630A60092206D
:1000D8007828061B73280930A60092207828861BEA
:1000E80078280C30A600922025088A00240E830068
:0600F800FF0E7F0E09005F
:0E00FE008312031322088A00210882000800E2
:10010C007F208A110A128000840AA10A0319A20A0C
:08011C00F003031D8628080012
:1001240083120313F101260871020318DA28230845
:10013400031DB92805150230FB000430FC00BA3059
:10014400FD00FD0BA328FC0BA328FB0BA328000038
:1001540005110230FB000430FC00BA30FD00FD0B39
:10016400B128FC0BB128FB0BB1280000D8282308C8
:100174000319D82885150230FB000430FC00BA307E
:10018400FD00FD0BC328FC0BC328FB0BC328000098
:1001940085110230FB000430FC00BA30FD00FD0B79
:1001A400D128FC0BD128FB0BD1280000F10A95289B
:0201B400080041
:1001B600013083120313A000073083169C0086309B
:1001C60081008B170B178B166C308312810003305E
:1001D60083168500F0308600033083128500FF30D9
:1001E60086000518F728A3018518FB280130A3000F
:0401F600F428FC28C5
:02400E004A2F37
:00000001FF
