:02000000D52801
:0E0006008312031323088A00220882000800D8
:1000140083120313FB01FA01F9018030F800F10C9B
:10002400F00C031C1E287408F90775080318750FD3
:10003400FA070318FB0A0310F01F26287408FA07AE
:1000440075080318750FFB07FB0CFA0CF90CF80C78
:10005400031C11287B08F3007A08F2007908F100E8
:060064007808F00008001E
:0C006A008312031395011712971208006F
:1000760003208A110A128000840AA20A0319A30A1D
:08008600F003031D3B280800F4
:10008E00831603131208013EF000F1010318F10A62
:10009E0083122408F400F5010A200630F2007008DD
:1000AE00F4007108F500720803196228F50CF40CBF
:1000BE00F513FF3E5B280430F1007408F000710860
:1000CE0003196D28F00D7010FF3E6728831203137D
:1000DE0030307005F3007408F0007508F100F10C73
:1000EE00F00CF113F10CF00CF113700895000F30B9
:0800FE00970573089704080040
:0C010600831203139B011D129D120800C0
:10011200831603131208013EF000F1010318F10ADD
:1001220083122408F400F5010A200630F200700858
:10013200F4007108F50072080319A428F50CF40CF8
:10014200F513FF3E9D280430F1007408F000710899
:100152000319AF28F00D7010FF3EA9288312031374
:1001620030307005F3007408F0007508F100F10CEE
:10017200F00CF113F10CF00CF11370089B000F302E
:080182009D0573089D040800AF
:10018A00831603130711831212150C309704080003
:10019A00831603138710831212150C309D0408006E
:1001AA000730831603139C001E30860087011E3019
:1001BA0083128600870112149210C73083169200A8
:1001CA00352012149210C7308316920083207F3094
:1001DA00A0007F30A1007F30A40047202108A4009E
:1001EA008920C520CD2086180829D030FC00C930C6
:1001FA00FD00FD0BFE28FC0BFE2800000000A00AF3
:10020A002008A400472006191829D030FC00C9305C
:10021A00FD00FD0B0E29FC0B0E2900000000A003B7
:10022A002008A400472086192829D030FC00C930AC
:10023A00FD00FD0B1E29FC0B1E2900000000A10A6F
:10024A002108A4008920061A3829D030FC00C930B8
:10025A00FD00FD0B2E29FC0B2E2900000000A10336
:0A026A002108A4008920F828392992
:02400E004A2F37
:00000001FF
