:020000001628C0
:0E0006008312031321088A00200882000800DC
:1000140003208A110A128000840AA00A0319A10A83
:08002400F003031D0A28080087
:10002C000730831203139F008316051406108312E6
:10003C0085018601051C402806140330FB008A301C
:10004C00FC005530FD00FD0B2928FC0B2928FB0B6F
:10005C0029280000000006100330FB008A30FC0049
:10006C005530FD00FD0B3828FC0B3828FB0B3828CD
:08007C000000000020284128CB
:02400E006A2125
:00000001FF
