:020000003628A0
:10000800FF00030E8301A2000A08A3008A010B1D4A
:100018001C280B116C30810005181628150AF000F1
:100028007008950085181C281503F00070089500C5
:0E00380023088A00220E8300FF0E7F0E0900AF
:0E0046008312031321088A002008820008009C
:1000540023208A110A128000840AA00A0319A10A23
:08006400F003031D2A28080027
:10006C000730831203139F008630831681008B1791
:10007C000B178B166C308312810006309200FF3008
:10008C00910095010C309700033083168500860192
:0A009C00033083128500860152280C
:02400E006A2125
:00000001FF
