:020000003128A5
:10000800FF00030E8301A3000A08A2008A010B1D4A
:1000180017280B116C30810005181428851517282E
:1000280085181728851122088A00230E8300FF0EE1
:040038007F0E09002E
:0E003C008312031321088A00200882000800A6
:10004A001E208A110A128000840AA00A0319A10A32
:08005A00F003031D2528080036
:100062000730831203139F008630831681008B179B
:100072000B178B166C3083128100033083168500B8
:1000820003308312850005150330FB008A30FC0023
:100092005530FD00FD0B4B28FC0B4B28FB0B4B286E
:1000A2000000000005110330FB008A30FC005530CF
:1000B200FD00FD0B5A28FC0B5A28FB0B5A280000A6
:0600C20000004428632841
:02400E00692126
:00000001FF
