:020000002029B5
:10000600710DF80DF90D7408F8027508031C750FCB
:10001600F902F00DF10D0F30FC00710DF80DF90D20
:100026007408701C1C28F8027508031C750FF90269
:100036002128F80775080318750FF907F00DF10D5B
:10004600FC0B102870182D287408F807750803187B
:08005600750FF9070000080016
:0E005E008312031325088A002408820008007C
:10006C0083120313051C5528A20A0319A30AEA30AC
:10007C00FC00C330FD00FD0B4128FC0B41288030F7
:10008C002306F0008030033A7002031D4F28E7303E
:10009C002202031C5528E730A2000330A300851C64
:1000AC0070280130A202031CA303EA30FC00C33009
:1000BC00FD00FD0B5F28FC0B5F288030F0008030CA
:1000CC0023067002031D6C282208003C031C7028B8
:0600DC00A201A3010800CF
:1000E2002F208A110A128000840AA40A0319A50A81
:0800F200F003031D7128080052
:1000FA003F3083120313AE000030AF000630B00069
:10010A000030B1005B30B2000030B3004F30B400B1
:10011A000030B5006630B6000030B7006D30B80068
:10012A000030B9007D30BA000030BB000730BC0097
:10013A000030BD007F30BE000030BF006730C00015
:10014A000030C1002C08F0002D08F100F00DF10D6F
:10015A00701070082E3E84000008F000840A00081F
:04016A00F100080098
:10016E00831203137408003A031DC6287508003A5B
:10017E00031DC628FF30F0007F30F1000800831207
:10018E000313FD01F901F80171087004031900341D
:10019E0071087506FA00FA1BFD09FB01F51FDC2834
:1001AE00F409F509F40A0319F50AF11FE328F00919
:1001BE00F109F00A0319F10A71087504FA00FA1B25
:1001CE00F82803207B180B29FD1F0034F009F109D4
:1001DE00F00A0319F10AF809F909F80A0319F90ADC
:1001EE000034F51F0729F11B03297108F900700867
:1001FE00F800F101F001EB28F101F001F00A0034F2
:10020E00F109F009FB0AE828F80A0319F90A74083B
:10021E007802031DEB2875087902031DEB28F901FE
:10022E00F801F00A0319F10AF11FEB280000FF3460
:02023E000800B6
:1002400083120313A001A101A201A30107309F00A3
:10025000033083168500860183120511851136202F
:100260006430F4000030F5002208F0002308F100AB
:10027000B7207008AA007108AB006430F4000030A9
:10028000F5002208F0002308F100B7207808F000FC
:100290007908F1006430F4000030F500B7207008F0
:1002A0002A02F0007108031C013E2B02F1007008C5
:1002B000A8007108A9007008AC007108AD007D208D
:1002C0007008860086170730FC007D30FD00FD0BAE
:1002D0006729FC0B672986136430F4000030F500B1
:1002E0002208F0002308F100B7207808F000790810
:1002F000F1007008A6007108A7000A30F400003071
:10030000F500B7207008AA007108AB000A30F400AD
:100310000030F5002208F0002308F100B72078082B
:10032000F0007908F1000A30F4000030F500B72041
:1003300070082A02F0007108031C013E2B02F10034
:100340007008A6007108A7007008AC007108AD0025
:100350007D207008860005150730FC007D30FD000B
:10036000FD0BB029FC0BB02905110A30F400003058
:10037000F5002208F0002308F100B7207808F0000B
:100380007908F1007008A0007108A1007008AC00A5
:100390007108AD007D207008860085150730FC00CF
:1003A0007D30FD00FD0BD229FC0BD22985112F29B0
:0203B000D8294A
:02400E006A2125
:00000001FF
