:020000003028A6
:0E0006008312031321088A00200882000800DC
:100014008312031305118515051206101930FC000F
:10002400EE30FD00FD0B1428FC0B14280000061410
:100034000230FC000830FD00FD0B1E28FC0B1E28BE
:0400440000000800B0
:1000480003208A110A128000840AA00A0319A10A4F
:08005800F003031D2428080039
:100060000730831203139F00033083168500860137
:10007000033083128500860105184128851C41281C
:100080004B2885184728051C47280A204B28851827
:0A0090004B2805184B283C284C288B
:02400E006A2125
:00000001FF
